:10098400012D00012A00013800012B00012C700107
:0E09940029010A2E3F065B4F666D7D077F6FBF
:1009C100120A007FA01208F71209D1E4FF1208F7FA
:0709D100D2A10000C2A12227
:0B0A0000D2A0D2A10000C2A0C2A1221F
:0B0A0B00C2A0D2A10000D2A0C2A12214
:1008F700E4F52DEFC4131313540124FF92A0EF2541
:10090700E0FFD2A10000C2A1052DE52DB408E4A2A5
:06091700A09200C2A02224
:1009A300E4FFD2A0F52DEF25E0FFD2A1000030A097
:0D09B300010FC2A1052DE52DB408EBC2A077
:0109C0002214
:1009D8001209C1AF2C1208F71209D1120A0B7F0AAB
:0509E8007E000209641D
:100941001209C1120A007FA11208F71209D1120976
:10095100A38F081209D1120A0B7F0A7E00120964C3
:02096100AF08DD
:010963002271
:10096400E4FDFCC3ED9FEC9E5015E4FBFA0BBB00C9
:0F097400010ABA04F8BBFBF50DBD00010C80E4CD
:010983002251
:1009ED00758901758CF7758A15D28C75A880D2A979
:0309FD00D28D2276
:10091D001209ED1209418F2C1208CFE529B401FB04
:10092D001209D87F0A7E00120964AF2C1208CFE499
:04093D00F52980E731
:1008CF00753902EF75F00A84742E25F0F8E6FE7480
:1008DF00212539F8A606EF75F00A84FF1539C3E50F
:0808EF00396480948050DC2282
:03000B0002088C5C
:10088C00C0E0C0D075D000C000758CF0758A1543DF
:10089C00A01CE52B25E025E0F452A07421252BF8B3
:1008AC00E6F580052BE52BB40305752B000538E523
:1008BC0038B46408052C753800752901D000D0D0E7
:0308CC00D0E03247
:03000000020800F3
:0C080000787FE4F6D8FD758139020847C6
:10080C0002091DE493A3F8E493A34003F68001F2DC
:10081C0008DFF48029E493A3F85407240CC8C333ED
:10082C00C4540F4420C8834004F456800146F6DFBC
:10083C00E4800B0102040810204080900984E47EBF
:10084C00019360BCA3FF543F30E509541FFEE493B1
:10085C00A360010ECF54C025E060A840B8E493A378
:10086C00FAE493A3F8E493A3C8C582C8CAC583CAA3
:10087C00F0A3C8C582C8CAC583CADFE9DEE780BE5B
:0109A2000054
:00000001FF
