:10036D00434F554E54455220454550524F4D3A003E
:10000300E4F508F509F50AF50B120321120393E44D
:10001300FDFF1203357BFF7A03796D12022FAD09C1
:100023007F017E001202827F017E00120189750A20
:10003300008F0B7FE87E031202AFE4FD7F01120302
:1000430035C3E50B940AE50A9400500E7F30120382
:100053005B7F3012035BE50B8072C3E50B9464E5B1
:100063000A940050257F3012035BAE0AAF0B7C006D
:100073007D0A120134EF2430FF12035BAE0AAF0B8B
:100083007C007D0A120134ED8042D3E50B94FFE539
:100093000A9400503FAE0AAF0B7C007D641201341A
:1000A300EF2430FF12035BAE0AAF0B7C007D0A1214
:1000B30001347C007D0A120134ED2430FF12035B0E
:1000C300AE0AAF0B7C007D0A120134ED2430FF121F
:1000D300035B8009E4F508F509F50AF50B7F647EF7
:1000E300001202AF0509E50970020508D3E50B9478
:1000F300FFE50A94005003020021E4F508F509F531
:030103000AF50BEF
:0101060022D6
:100282008E0C8F0D8D0E80077FA01201CE500512AD
:10029200038980F4E50CFF1201CEAF0D1201CEAF3F
:0702A2000E1201CE02030D54
:040189008E0C8F0D3C
:10018D00E4F50E80077FA01201CE50051203898081
:10019D00F4E50CFF1201CEAF0D1201CE1202F97F64
:1001AD00A11201CE1202028F0E1202E4C2A07F052F
:1001BD007E00120262D2A07F057E00120262AF0E97
:0101CD00220F
:08025A00C2A1D2A07F057E00C5
:10026200E4FDFCC3ED9FEC9E5015E4FBFA0BBB00D2
:0F027200010AEB64144A70F50DBD00010C80E425
:01028100225A
:05039300D2A0D2A1225E
:0A038900D2A112025CC2A0020262BF
:1002F900C2A112025ED2A0120262D2A1120262C28D
:04030900A0020262EA
:10030D00C2A112025EC2A0120262D2A1120262D278
:04031D00A0020262D6
:1002CF00C2A17F0A7E00120262C2A0120262D2A1F4
:0502DF007F1402026221
:1002E400C2A17F0A7E00120262D2A0120262D2A1CF
:0502F4007F140202620C
:0201CE008F0F91
:1001D000E4F9C2A112025EA801E50F088002C33350
:1001E000D8FC30E704D2A08005C2A012025ED2A1E2
:1001F00012025E09B908DB12025AD2A1120262A2EF
:01020000A05D
:0102010022DA
:10020200E4F510F912025AD2A1120262A2A0E4335A
:10021200F50FC3740799FFF8E50F088002C333D8BE
:0C022200FC421012025E09B908DAAF10AD
:01022E0022AD
:100321007F381203497F0C1203497F011203497F71
:0403310080020349FA
:100349008F80C2A5C2A61202A9C2A77F0A7E000297
:0203590002AFF1
:10035B008F80C2A5D2A61202A9C2A77F0A7E000275
:02036B0002AFDF
:06022F008B0C8A0D890E04
:10023500E4F50FF510AB0CAA0DA90E851082850FFC
:1002450083120107FF600D12035B0510E51070E5D1
:04025500050F80E130
:010259002282
:10033500EF7007ED2480F50C8005ED24C0F50CAFBA
:040345000C0203495A
:0602A900D2A77F0A7E00CF
:1002AF00E4FDFCC3ED9FEC9E5015E4FBFA0BBB0085
:0F02BF00010AEB640A4A70F50DBD00010C80E4E2
:0102CE00220D
:0300000002037D7B
:0C037D00787FE4F6D8FD758110020003C3
:10010700BB010CE58229F582E5833AF583E02250AD
:1001170006E92582F8E622BBFE06E92582F8E222F7
:0D012700E58229F582E5833AF583E4932211
:10013400BC000BBE0029EF8DF084FFADF022E4CCAF
:10014400F875F008EF2FFFEE33FEEC33FCEE9DEC78
:10015400984005FCEE9DFE0FD5F0E9E4CEFD22EDBE
:10016400F8F5F0EE8420D21CFEADF075F008EF2F08
:10017400FFED33FD4007985006D5F0F222C398FDF9
:050184000FD5F0EA2296
:00000001FF
