:1001F300012D00012B00013800012C0001217001A9
:0E0203002A010A2E3F065B4F666D7D077F6F56
:100230001202BB7FA0120184120240E4FF1201846B
:07024000D2A10000C2A122BF
:0B02BB00D2A0D2A10000C2A0C2A1226C
:0B02C600C2A0D2A10000D2A0C2A12261
:10018400E4F52DEFC4131313540124FF92A0EF25BB
:10019400E0FFD2A10000C2A1052DE52DB408E4A220
:0601A400A09200C2A0229F
:10021200E4FFD2A0F52DEF25E0FFD2A1000030A02F
:0D022200010FC2A1052DE52DB408EBC2A00F
:01022F0022AC
:10024700120230AF211201841202401202C67F054A
:050257007E000201B071
:1001D0001202301202BB7FA11201841202401202ED
:1001E000128F0E1202401202C67F057E001201B06D
:0201F000AF0E50
:0101F20022EA
:10028400758901758CF7758A15D28C75A880D2A9E9
:03029400D28D22E6
:10015D0012025C1202841201D08F21120135E52AA0
:10016D00B401FB1202477F057E001201B0AF2112D0
:07017D000135E4F52A80E7DB
:10013500753902EF75F00A84742E25F0F8E6FE7421
:10014500222539F8A606EF75F00A84FF1539C3E5AF
:08015500396480948050DC2223
:03000B0002009A56
:10009A00C0E0C0D075D000C000758CF0758A1543D9
:1000AA00A01CE52C25E025E0F452A07422252CF8AA
:1000BA00E6F580052CE52CB40305752C000538E51A
:1000CA0038B464080521753800752A01D000D0D0EB
:0300DA00D0E03241
:10025C007F381202977F0C1202977F011202977F50
:04026C008002029773
:100297008F80C2A5C2A61201AAC2A77F0A7E00024A
:0202A70001B0A4
:1002A9008F80C2A5D2A61201AAC2A77F0A7E000228
:0202B90001B092
:06010A008B088A09890A36
:10011000E4F50BF50CAB08AA09A90A850C82850B3E
:10012000831200DDFF600D1202A9050CE50C70E5DD
:04013000050B80E15A
:0101340022A8
:10027000EF7007ED2480F50D8005ED24C0F50DAF7E
:040280000D020297D2
:0601AA00D2A77F0A7E00CF
:1001B000E4FDFCC3ED9FEC9E5015E4FBFA0BBB0085
:0F01C000010AEB64704A70F50DBD00010C80E47C
:0101CF00220D
:0300000002000EED
:0C000E00787FE4F6D8FD758139020055BA
:1000DD00BB010CE58229F582E5833AF583E02250D8
:1000ED0006E92582F8E622BBFE06E92582F8E22222
:0D00FD00E58229F582E5833AF583E493223C
:10001A0002015DE493A3F8E493A34003F68001F29E
:10002A0008DFF48029E493A3F85407240CC8C333E7
:10003A00C4540F4420C8834004F456800146F6DFB6
:10004A00E4800B01020408102040809001F3E47E52
:10005A00019360BCA3FF543F30E509541FFEE493AB
:10006A00A360010ECF54C025E060A840B8E493A372
:10007A00FAE493A3F8E493A3C8C582C8CAC583CA9D
:10008A00F0A3C8C582C8CAC583CADFE9DEE780BE55
:0102110000EC
:00000001FF
