:100853008E168F178D1880077FA012079F500512E1
:1008630009A580F4E516FF12079FAF1712079FAF84
:070873001812079F0209257E
:0406EE008E198F1AB8
:1006F200E4F51B80077FA012079F50051209A58011
:10070200F4E519FF12079FAF1A12079F1209117F12
:10071200A112079F1207D38F1B1208FCC2A07F05EC
:100722007E00120833D2A07F057E00120833AF1B71
:0107320022A4
:0A069B008E368F378B388A39893A82
:1006A50080077FA012079F50051209A580F4E53643
:1006B500FF12079FAF3712079FE4F53CF53DC3E5F1
:1006C5003D953BE53C9400501DAB38AA39A93A85C8
:1006D5003D82853C8312035FFF12079F053DE53D83
:0906E50070DC053C80D8020925F7
:0A061D008E368F378B388A39893A00
:1006270080077FA012079F50051209A580F4E536C1
:10063700FF12079FAF3712079F1209117FA11207F9
:100647009F1207D3AB38AA39A93AEF12038C753D2D
:1006570000753E01C3E53E953CE53D953B502012B4
:1006670008E71207D3AB38AA39A93A853E82853DF8
:1006770083EF12039E053EE53E70D9053D80D512F6
:1006870008FCC2A07F057E00120833D2A07F057E3A
:040697000002083322
:1008C700E4FDFCC3ED9FEC9E5015E4FBFA0BBB0067
:0F08D700010AEB64704A70F50DBD00010C80E45E
:0108E60022EF
:08082B00C2A1D2A07F057E00EE
:10083300E4FDFCC3ED9FEC9E5015E4FBFA0BBB00FB
:0F084300010AEB64144A70F50DBD00010C80E44E
:010852002283
:0509AF00D2A0D2A1223C
:0A09A500D2A112082DC2A0020833EF
:10091100C2A112082FD2A0120833D2A1120833C2E9
:04092100A0020833F5
:10092500C2A112082FC2A0120833D2A1120833D2D5
:04093500A0020833E1
:1008E700C2A17F0A7E00120833C2A0120833D2A128
:0508F7007F140208332C
:1008FC00C2A17F0A7E00120833D2A0120833D2A103
:05090C007F1402083316
:02079F008F3F8A
:1007A100E4F9C2A112082FA801E53F088002C33372
:1007B100D8FC30E704D2A08005C2A012082FD2A134
:1007C10012082F09B908DB12082BD2A1120833A293
:0107D100A087
:0107D2002204
:1007D300E4F540F912082BD2A1120833A2A0E433A6
:1007E300F53FC3740799FFF8E53F088002C333D888
:0C07F300FC424012082F09B908DAAF40A0
:0107FF0022D7
:0409B900256C750034
:100939007F381209757F0C1209757F011209757FBD
:0409490080020975AA
:100975008F80C2A5C2A61208A1C2A77F0A7E000267
:0209850008A7C1
:100987008F80C2A5D2A61208A1C2A77F0A7E000245
:0209970008A7AF
:0509B4007F010209753E
:060800008B368A378938AF
:10080600E4F539F53AAB36AA37A938853A828539FF
:100816008312035FFF600D120987053AE53A70E51A
:04082600053980E12F
:01082A0022AB
:10094D00EF7007ED2480F5368005ED24C0F536AF48
:04095D0036020975E0
:100733007547FF7548097549B98F4D8E4C8D4B8CA4
:100743004A7B007A00790A12005FE4F508F5097420
:100753000A2509F8E6FF600D1209870509E5097006
:05076300EE050880EA2C
:01076800226E
:0608A100D2A77F0A7E00D1
:1008A700E4FDFCC3ED9FEC9E5015E4FBFA0BBB0087
:0F08B700010AEB640A4A70F50DBD00010C80E4E4
:0108C600220F
:10096100256C7500436F756E746572204545505254
:040971004F4D3A00AC
:100769007547FF7548097549618F4D8E4C8D4B8CC6
:100779004A7B007A00793812005FE4F536F5377460
:10078900382537F8E6FF600D1209870537E5377018
:05079900EE053680EAC8
:01079E002238
:10050300E4F526F532F531F530F52FF534F53512EE
:1005130009391209AF1209B4E4FDFF12094D7BFF3B
:100523007A0979651208007F407E427D0F7C00E4E2
:100533007B0AFAF9F81203FCE47B6D7A01F9F812ED
:1005430003FCAB07AA06A905A804E4FF7E5CFDFC37
:100553001203FC8F258E248D238C22E4F533AF32D6
:10056300AE31AD30AC2FC37403953375F008A4F9E5
:10057300F812048E74272533F8A6070533E533B440
:1005830004DC7B007A007927753B047F207E001210
:10059300069B7B007A00792B753B00753C047F201A
:1005A3007E0012061DE4F532F531F530F52FF533F3
:1005B300AF32AE31AD30AC2F78081204A1C004A91C
:1005C30005AA06AB07742B2533F8E6FFD000EB4FE3
:1005D300F532EAF531E9F530E8F52F0533E533B4C3
:1005E30004CEE4FD7F0112094DAF32AE31AD30AC24
:1005F3002F120769E5322401F532E43531F531E490
:100603003530F530E4352FF52F7F017E001208C712
:0A061300AE24AF251208C702055EF1
:0300000002099959
:0C099900787FE4F6D8FD75815702050355
:10035F00BB010CE58229F582E5833AF583E0225053
:10036F0006E92582F8E622BBFE06E92582F8E2229D
:0D037F00E58229F582E5833AF583E49322B7
:10038C00BB010689828A83F0225002F722BBFE0150
:02039C00F3224A
:10039E00F8BB010DE58229F582E5833AF583E8F095
:1003AE00225006E92582C8F622BBFE05E92582C841
:0203BE00F22229
:1003C00075F008758200EF2FFFEE33FECD33CDCCF4
:1003D00033CCC58233C5829BED9AEC99E582984077
:1003E0000CF582EE9BFEED9AFDEC99FC0FD5F0D654
:1003F000E4CEFBE4CDFAE4CCF9A88222B800C1B97E
:100400000059BA002DEC8BF084CFCECDFCE5F0CBBB
:10041000F97818EF2FFFEE33FEED33FDEC33FCEBF4
:1004200033FB10D703994004EB99FB0FD8E5E4F9AF
:10043000FA227818EF2FFFEE33FEED33FDEC33FC9C
:10044000C933C910D7059BE99A4007EC9BFCE99A90
:10045000F90FD8E0E4C9FAE4CCFB2275F010EF2FD5
:10046000FFEE33FEED33FDCC33CCC833C810D707D5
:100470009BEC9AE899400AED9BFDEC9AFCE899F810
:0E0480000FD5F0DAE4CDFBE4CCFAE4C8F922A3
:10048E00E8600FECC313FCED13FDEE13FEEF13FF4C
:03049E00D8F12270
:1004A100E8600FEFC333FFEE33FEED33FDEC33FCB9
:0304B100D8F1225D
:10000300E5532447F8E6055322784430070278473E
:10001300E475F0011204CD0204B42000EB7F2ED26C
:10002300008018EF540F2490D43440D4FF30040BD5
:10003300EF24BFB41A0050032461FFE55460021596
:10004300540557E5577002055630070D7844E4759B
:10005300F0011204CDEF02038C02087A7403D20775
:100063008003E4C207F5538B448A458946E4F5547B
:10007300F556F557E55460077F2012003E80F5756D
:1000830055FFC201C200C202C203C205C206C208B2
:1000930012000CFF700D3007057F0012004FAF57A1
:1000A300AE5622B4255FC2D5C20412000CFF24D081
:1000B300B40A00501A75F00A785430D50508B6FF13
:1000C3000106C6A426F620D5047002D20380D924E3
:1000D300CFB41A00EF5004C2E5D20402024FD2019A
:1000E30080C6D20080C0D20280BCD2D580BAD205ED
:1000F30080B47F2012003E2002077401B5540040F3
:10010300F1120003FF12003E020077D208D20680EC
:1001130095120003FB120003FA120003F94A4B7015
:100123000679207A037BFF20022EE554602A7E00A5
:100133008E8275830012035F60060EEE655570F0C4
:10014300C2D5EBC0E0EAC0E0E9C0E0EE120296D00F
:10015300E0F9D0E0FAD0E0FB1204B4FF60AAEBC0F0
:10016300E0EAC0E0E9C0E012003ED0E02401F9D0AB
:10017300E03400FAD0E0FBE5550460DCD555D980C6
:10018300877BFF7A027992D202809C791080027970
:1001930008C206C2088008D2D5790A8004790AC247
:1001A300D5E555047002F555E4FAFDFEFF12000390
:1001B300FC7B08200113120003FD7B1030000A12A0
:1001C3000003FE120003FF7B20EC3382D592D5504F
:1001D30013C3E43000069FFFE49EFEE42001039D69
:1001E300FDE49CFCE4CBF8C201EC700CCFCECDCC8B
:1001F300E824F8F870F38017C3EF33FFEE33FEED16
:1002030033FDEC33FCEB33FB994002FB0FD8E9EBF6
:10021300300105F8D0E0C448B201C0E00AEC4D4E0D
:100223004F78207B0070C2EAB5550040BCC0E01295
:100233000298D0F0D0E0200104C4C0E0C4B201C0F1
:10024300F0120027D0F0D5F0EB0200771204DD01A5
:100253001453018E5800E54C00E14201924F019A7C
:0F02630044019A4900FA4301A0550184460184E1
:100272004501844703405000E92D00ED2E01102B6B
:1002820000F123010E2003292A00A94800000108D9
:100292003F3F3F00790AA2D5200314300509B91067
:1002A200020404B9080104A2D52006025001042068
:1002B20002689202B554005034C0E07F2030031926
:1002C2007F30A20272067205500F1202EFC202C202
:1002D20006C205C2087F30800F300503E9C0E01274
:1002E200003E300503D0E0F9D0E0B554CC3005171C
:1002F2007F30B9100C12003E7F583004077F78809F
:1003020003B9080312003E3002057F2D02003E7F32
:10031200202008F87F2B2006F322920280CF286E3D
:10032200756C6C2900D2011200033001F8C2017809
:100332005430D50108F60200A92D50434958120045
:10034200032403B405004001E490033B9312002F01
:0D035200743A12002FD20375540402018E7C
:1004B400BB010689828A83E0225002E722BBFE0246
:0904C400E32289828A83E4932279
:1004CD00FAE6FB0808E6F925F0F618E6CA3AF62230
:1004DD00D083D082F8E4937012740193700DA3A3AE
:1004ED0093F8740193F5828883E4737402936860C2
:0604FD00EFA3A3A380DFC2
:10087A00EFB40A07740D120885740A309811A89902
:10088A00B8130CC2983098FDA899C298B811F630DE
:07089A0099FDC299F59922B6
:00000001FF
