:100135007F381201AB7F057E001200C87F0F1201C8
:10014500AB7F057E001200C87F801201AB7F057E64
:04015500000200C8DC
:100110008B0C8A0D890EAB0CAA0DA90E12017B6007
:1001200013050EE50E7002050D14F912017BFF1286
:0501300001BB80E2228A
:1001AB008F80C2A61200C0C2A77F057E000200C8C6
:1001BB008F80D2A61200C0C2A77F057E000200C8A6
:0800C000C2A5D2A77F017E005A
:1000C800E4FDFCC3ED9FEC9E5015E4FBFA0BBB006E
:0F00D800010ABA04F8BBFBF50DBD00010C80E472
:0100E70022F6
:0E01CB0073656E64203A0052656164203A004C
:100159001201357BFF7A0179CB1201107FC01201A0
:10016900AB7BFF7A0179D212011012005E120003F3
:0201790080F80C
:100194001201E57FA01200961201A4E4FF1200965A
:0701A400D2A10000C2A1225C
:0B01E500D2A0D2A10000C2A0C2A12243
:0B01F000C2A0D2A10000D2A0C2A12238
:10009600E4FBFAEFC4131313540124FF92A0EF25D7
:1000A600E0FFD2A10000C2A10BBB00010AEB64086D
:0900B6004A70E0A2A09200C2A071
:0100BF00221E
:1000E800D2A0E4F508FFFEE50825E0F508D2A10056
:1000F8000030A0020508C2A10FBF00010EEF64087E
:070108004E70E4C2A0AF0835
:01010F0022CD
:10005E001201947F091200961201A47F09120096D4
:10006E001201A41201F020001B7F647E001200C852
:10007E007F861201AB7F301201BB7F871201AB7FEF
:08008E00300201BB1201A422A3
:100003001201941201E57FA11200961201A41200BD
:10001300E88F0A1201A41200E88F0B1201A4120147
:10002300F07F647E001200C87FC61201ABE50AC3ED
:10003300940A5007E50A2430FF8002AF0A1201BB7D
:100043007FC71201ABE50BC3940A5007E50B2430BD
:0B005300FF8002AF0B1201BB0201A4F2
:030000000201D921
:0C01D900787FE4F6D8FD75812002015902
:10017B00BB010689828A83E0225002E722BBFE0282
:09018B00E32289828A83E49322B5
:00000001FF
