:0C094000456D626554726F6E696358006B
:09095800D2A0D2A1C2A0C2A122CA
:10086B00AE071209587FA012087FAF0612087F123D
:04087B0009587FA1F8
:10087F008F20E4FFA20792A0D2A1C2A1E52025E01C
:0D088F00F5200FBF08EE20A0FDD2A1C2A1F0
:01089C002239
:10080000A2A09200E4FFE52025E0F520A2A092003E
:10081000D2A1C2A10FBF08EEE520B40D0ED2A0D226
:10082000A1C2A1C2A0120961AF2022C2A0D2A1C25E
:05083000A1D2A0AF20E1
:0108350022A0
:09096100C2A0D2A1D2A0C2A122C1
:1008FF00AE05AD071209587FA012087FAF05120889
:09090F007FAF0612087F020961A6
:09096A0012086B12080002096179
:100836008B148A158916AE071209587FA012087FF5
:10084600AF068019AB14AA15A9161209186013056C
:1008560016E5167002051514F9120918FF12087F1D
:0508660080E2020961BF
:1008C20012086BE4F51412080074212514F8A60727
:0E08D2000514E514C3940A40ED1209617F215C
:0108E00022F5
:0F093100759850438920758DFD758BFDD28E22F0
:080973008F993099FDC2992211
:10089D008B148A158916AB14AA15A916120918609E
:1008AD00130516E5167002051514F9120918FF1235
:0508BD00097380E22236
:1008E1001209317BFF7A097940E4FF120836E4FFEF
:0E08F1001208C27B007A00792112089D80FE59
:0300000002094CA6
:0C094C00787FE4F6D8FD75812C0208E1EC
:10091800BB010689828A83E0225002E722BBFE02DD
:09092800E32289828A83E4932210
:00000001FF
